{
  "contractName": "WalletContract",
  "abi": [
    {
      "anonymous": false,
      "inputs": [
        {
          "indexed": true,
          "internalType": "address",
          "name": "user",
          "type": "address"
        },
        {
          "indexed": false,
          "internalType": "uint256",
          "name": "amount",
          "type": "uint256"
        }
      ],
      "name": "Deposit",
      "type": "event"
    },
    {
      "anonymous": false,
      "inputs": [
        {
          "indexed": true,
          "internalType": "address",
          "name": "user",
          "type": "address"
        },
        {
          "indexed": false,
          "internalType": "uint256",
          "name": "amount",
          "type": "uint256"
        }
      ],
      "name": "Withdrawal",
      "type": "event"
    },
    {
      "inputs": [
        {
          "internalType": "address",
          "name": "",
          "type": "address"
        }
      ],
      "name": "balances",
      "outputs": [
        {
          "internalType": "uint256",
          "name": "",
          "type": "uint256"
        }
      ],
      "stateMutability": "view",
      "type": "function",
      "constant": true
    },
    {
      "inputs": [],
      "name": "deposit",
      "outputs": [],
      "stateMutability": "payable",
      "type": "function",
      "payable": true
    },
    {
      "inputs": [
        {
          "internalType": "uint256",
          "name": "amount",
          "type": "uint256"
        }
      ],
      "name": "withdraw",
      "outputs": [],
      "stateMutability": "nonpayable",
      "type": "function"
    },
    {
      "inputs": [],
      "name": "getBalance",
      "outputs": [
        {
          "internalType": "uint256",
          "name": "",
          "type": "uint256"
        }
      ],
      "stateMutability": "view",
      "type": "function",
      "constant": true
    }
  ],
  "bytecode": "0x608060405234801561001057600080fd5b5061077e806100206000396000f3fe60806040526004361061003f5760003560e01c806312065fe01461004457806327e235e31461006f5780632e1a7d4d146100ac578063d0e30db0146100d5575b600080fd5b34801561005057600080fd5b506100596100df565b6040516100669190610412565b60405180910390f35b34801561007b57600080fd5b5061009660048036038101906100919190610490565b610125565b6040516100a39190610412565b60405180910390f35b3480156100b857600080fd5b506100d360048036038101906100ce91906104e9565b61013d565b005b6100dd610311565b005b60008060003373ffffffffffffffffffffffffffffffffffffffff1673ffffffffffffffffffffffffffffffffffffffff16815260200190815260200160002054905090565b60006020528060005260406000206000915090505481565b806000803373ffffffffffffffffffffffffffffffffffffffff1673ffffffffffffffffffffffffffffffffffffffff1681526020019081526020016000205410156101be576040517f08c379a00000000000000000000000000000000000000000000000000000000081526004016101b590610573565b60405180910390fd5b806000803373ffffffffffffffffffffffffffffffffffffffff1673ffffffffffffffffffffffffffffffffffffffff168152602001908152602001600020600082825461020c91906105c2565b9250508190555060003373ffffffffffffffffffffffffffffffffffffffff168260405161023990610627565b60006040518083038185875af1925050503d8060008114610276576040519150601f19603f3d011682016040523d82523d6000602084013e61027b565b606091505b50509050806102bf576040517f08c379a00000000000000000000000000000000000000000000000000000000081526004016102b690610688565b60405180910390fd5b3373ffffffffffffffffffffffffffffffffffffffff167f7fcf532c15f0a6db0bd6d0e038bea71d30d808c7d98cb3bf7268a95bf5081b65836040516103059190610412565b60405180910390a25050565b60003411610354576040517f08c379a000000000000000000000000000000000000000000000000000000000815260040161034b906106f4565b60405180910390fd5b346000803373ffffffffffffffffffffffffffffffffffffffff1673ffffffffffffffffffffffffffffffffffffffff16815260200190815260200160002060008282546103a29190610714565b925050819055503373ffffffffffffffffffffffffffffffffffffffff167fe1fffcc4923d04b559f4d29a8bfc6cda04eb5b0d3c460751c2402c5c5cc9109c346040516103ef9190610412565b60405180910390a2565b6000819050919050565b61040c816103f9565b82525050565b60006020820190506104276000830184610403565b92915050565b600080fd5b600073ffffffffffffffffffffffffffffffffffffffff82169050919050565b600061045d82610432565b9050919050565b61046d81610452565b811461047857600080fd5b50565b60008135905061048a81610464565b92915050565b6000602082840312156104a6576104a561042d565b5b60006104b48482850161047b565b91505092915050565b6104c6816103f9565b81146104d157600080fd5b50565b6000813590506104e3816104bd565b92915050565b6000602082840312156104ff576104fe61042d565b5b600061050d848285016104d4565b91505092915050565b600082825260208201905092915050565b7f496e73756666696369656e742062616c616e6365000000000000000000000000600082015250565b600061055d601483610516565b915061056882610527565b602082019050919050565b6000602082019050818103600083015261058c81610550565b9050919050565b7f4e487b7100000000000000000000000000000000000000000000000000000000600052601160045260246000fd5b60006105cd826103f9565b91506105d8836103f9565b92508282039050818111156105f0576105ef610593565b5b92915050565b600081905092915050565b50565b60006106116000836105f6565b915061061c82610601565b600082019050919050565b600061063282610604565b9150819050919050565b7f53656e64206661696c6564000000000000000000000000000000000000000000600082015250565b6000610672600b83610516565b915061067d8261063c565b602082019050919050565b600060208201905081810360008301526106a181610665565b9050919050565b7f4d696e2031207765690000000000000000000000000000000000000000000000600082015250565b60006106de600983610516565b91506106e9826106a8565b602082019050919050565b6000602082019050818103600083015261070d816106d1565b9050919050565b600061071f826103f9565b915061072a836103f9565b925082820190508082111561074257610741610593565b5b9291505056fea2646970667358221220c6eb619e02eff6057deb1ae0f9272599fd1f1a085d1fa6b0ae5dd23f05a02dcb64736f6c63430008150033",
  "immutableReferences": {},
  "source": "// SPDX-License-Identifier: MIT\npragma solidity ^0.8.21; // Exact version match\n\ncontract WalletContract {\n    mapping(address => uint256) public balances;\n    \n    event Deposit(address indexed user, uint256 amount);\n    event Withdrawal(address indexed user, uint256 amount);\n\n    function deposit() external payable {\n        require(msg.value > 0, \"Min 1 wei\");\n        balances[msg.sender] += msg.value;\n        emit Deposit(msg.sender, msg.value);\n    }\n\n    function withdraw(uint256 amount) external {\n        require(balances[msg.sender] >= amount, \"Insufficient balance\");\n        balances[msg.sender] -= amount;\n        (bool sent,) = msg.sender.call{value: amount}(\"\");\n        require(sent, \"Send failed\");\n        emit Withdrawal(msg.sender, amount);\n    }\n\n    function getBalance() external view returns (uint256) {\n        return balances[msg.sender];\n    }\n}",
  "sourcePath": "/Users/sanket./Downloads/Projects/Assignments/Gateway Intern/local-contract/eth-wallet/contracts/WalletContract.sol",
  "compiler": {
    "name": "solc",
    "version": "0.8.21+commit.d9974bed.Emscripten.clang"
  },
  "schemaVersion": "3.4.16",
  "updatedAt": "2025-01-31T05:44:46.396Z",
  "networkType": "ethereum",
  "devdoc": {
    "kind": "dev",
    "methods": {},
    "version": 1
  },
  "userdoc": {
    "kind": "user",
    "methods": {},
    "version": 1
  }
}